{
  "contractName": "Campaign",
  "abi": [
    {
      "inputs": [
        {
          "internalType": "uint256",
          "name": "_goal",
          "type": "uint256"
        },
        {
          "internalType": "uint256",
          "name": "_duration",
          "type": "uint256"
        }
      ],
      "stateMutability": "nonpayable",
      "type": "constructor"
    },
    {
      "inputs": [],
      "name": "campaignEnded",
      "type": "error"
    },
    {
      "inputs": [],
      "name": "deadlineNotReached",
      "type": "error"
    },
    {
      "inputs": [],
      "name": "goalNotReached",
      "type": "error"
    },
    {
      "inputs": [],
      "name": "notOwner",
      "type": "error"
    },
    {
      "inputs": [],
      "name": "reachedDeadline",
      "type": "error"
    },
    {
      "inputs": [],
      "name": "zeroFunds",
      "type": "error"
    },
    {
      "anonymous": false,
      "inputs": [
        {
          "indexed": true,
          "internalType": "address",
          "name": "contributor",
          "type": "address"
        },
        {
          "indexed": false,
          "internalType": "uint256",
          "name": "amount",
          "type": "uint256"
        }
      ],
      "name": "Contributed",
      "type": "event"
    },
    {
      "anonymous": false,
      "inputs": [
        {
          "indexed": true,
          "internalType": "address",
          "name": "owner",
          "type": "address"
        },
        {
          "indexed": false,
          "internalType": "uint256",
          "name": "amount",
          "type": "uint256"
        }
      ],
      "name": "FundsWithdrawn",
      "type": "event"
    },
    {
      "anonymous": false,
      "inputs": [
        {
          "indexed": true,
          "internalType": "address",
          "name": "contributor",
          "type": "address"
        },
        {
          "indexed": false,
          "internalType": "uint256",
          "name": "amount",
          "type": "uint256"
        }
      ],
      "name": "RefundIssued",
      "type": "event"
    },
    {
      "inputs": [
        {
          "internalType": "uint256",
          "name": "",
          "type": "uint256"
        }
      ],
      "name": "contributors",
      "outputs": [
        {
          "internalType": "address",
          "name": "",
          "type": "address"
        }
      ],
      "stateMutability": "view",
      "type": "function"
    },
    {
      "inputs": [
        {
          "internalType": "address",
          "name": "",
          "type": "address"
        }
      ],
      "name": "contributorsToFunds",
      "outputs": [
        {
          "internalType": "uint256",
          "name": "",
          "type": "uint256"
        }
      ],
      "stateMutability": "view",
      "type": "function"
    },
    {
      "inputs": [],
      "name": "deadline",
      "outputs": [
        {
          "internalType": "uint256",
          "name": "",
          "type": "uint256"
        }
      ],
      "stateMutability": "view",
      "type": "function"
    },
    {
      "inputs": [],
      "name": "goal",
      "outputs": [
        {
          "internalType": "uint256",
          "name": "",
          "type": "uint256"
        }
      ],
      "stateMutability": "view",
      "type": "function"
    },
    {
      "inputs": [],
      "name": "owner",
      "outputs": [
        {
          "internalType": "address payable",
          "name": "",
          "type": "address"
        }
      ],
      "stateMutability": "view",
      "type": "function"
    },
    {
      "inputs": [],
      "name": "contribute",
      "outputs": [],
      "stateMutability": "payable",
      "type": "function"
    },
    {
      "inputs": [],
      "name": "withdrawFunds",
      "outputs": [],
      "stateMutability": "nonpayable",
      "type": "function"
    },
    {
      "inputs": [],
      "name": "getStatus",
      "outputs": [
        {
          "internalType": "string",
          "name": "",
          "type": "string"
        }
      ],
      "stateMutability": "view",
      "type": "function"
    },
    {
      "inputs": [],
      "name": "returnFunds",
      "outputs": [],
      "stateMutability": "nonpayable",
      "type": "function"
    }
  ],
  "bytecode": "0x60e06040523480156200001157600080fd5b506040516200127f3803806200127f8339818101604052810190620000379190620000c4565b3373ffffffffffffffffffffffffffffffffffffffff1660808173ffffffffffffffffffffffffffffffffffffffff1660601b815250508160a08181525050804262000084919062000105565b60c0818152505060008060006101000a81548160ff0219169083151502179055505050620001b5565b600081519050620000be816200019b565b92915050565b60008060408385031215620000d857600080fd5b6000620000e885828601620000ad565b9250506020620000fb85828601620000ad565b9150509250929050565b6000620001128262000162565b91506200011f8362000162565b9250827fffffffffffffffffffffffffffffffffffffffffffffffffffffffffffffffff038211156200015757620001566200016c565b5b828201905092915050565b6000819050919050565b7f4e487b7100000000000000000000000000000000000000000000000000000000600052601160045260246000fd5b620001a68162000162565b8114620001b257600080fd5b50565b60805160601c60a05160c05161105862000227600039600081816101eb015281816107a60152818161082f015261097001526000818161028a015281816105ef0152818161080901526108940152600081816105250152818161065001528181610734015261094c01526110586000f3fe6080604052600436106100865760003560e01c8063401938831161005957806340193883146101215780634e69d5601461014c5780635776b05b146101775780638da5cb5b146101b4578063d7bb99ba146101df57610086565b80631eb5ea2e1461008b57806324600fc3146100a257806329dcb0cf146100b95780633cb5d100146100e4575b600080fd5b34801561009757600080fd5b506100a06101e9565b005b3480156100ae57600080fd5b506100b7610523565b005b3480156100c557600080fd5b506100ce6107a4565b6040516100db9190610dd4565b60405180910390f35b3480156100f057600080fd5b5061010b60048036038101906101069190610bec565b6107c8565b6040516101189190610d1c565b60405180910390f35b34801561012d57600080fd5b50610136610807565b6040516101439190610dd4565b60405180910390f35b34801561015857600080fd5b5061016161082b565b60405161016e9190610d52565b60405180910390f35b34801561018357600080fd5b5061019e60048036038101906101999190610bc3565b610932565b6040516101ab9190610dd4565b60405180910390f35b3480156101c057600080fd5b506101c961094a565b6040516101d69190610d37565b60405180910390f35b6101e761096e565b005b7f0000000000000000000000000000000000000000000000000000000000000000421015610243576040517f0181c12700000000000000000000000000000000000000000000000000000000815260040160405180910390fd5b60008054906101000a900460ff1615610288576040517f3bc47fbe00000000000000000000000000000000000000000000000000000000815260040160405180910390fd5b7f000000000000000000000000000000000000000000000000000000000000000047106102ea576040517f08c379a00000000000000000000000000000000000000000000000000000000081526004016102e190610d94565b60405180910390fd5b60005b60028054905081101561050657600060028281548110610336577f4e487b7100000000000000000000000000000000000000000000000000000000600052603260045260246000fd5b9060005260206000200160009054906101000a900473ffffffffffffffffffffffffffffffffffffffff1690506000600160008373ffffffffffffffffffffffffffffffffffffffff1673ffffffffffffffffffffffffffffffffffffffff16815260200190815260200160002054905060008111156104f1576000600160008473ffffffffffffffffffffffffffffffffffffffff1673ffffffffffffffffffffffffffffffffffffffff1681526020019081526020016000208190555060008273ffffffffffffffffffffffffffffffffffffffff168260405161041b90610d07565b60006040518083038185875af1925050503d8060008114610458576040519150601f19603f3d011682016040523d82523d6000602084013e61045d565b606091505b50509050806104a1576040517f08c379a000000000000000000000000000000000000000000000000000000000815260040161049890610db4565b60405180910390fd5b8273ffffffffffffffffffffffffffffffffffffffff167fa171b6942063c6f2800ce40a780edce37baa2b618571b11eedd1e69e626e7d76836040516104e79190610dd4565b60405180910390a2505b505080806104fe90610eed565b9150506102ed565b5060016000806101000a81548160ff021916908315150217905550565b7f000000000000000000000000000000000000000000000000000000000000000073ffffffffffffffffffffffffffffffffffffffff163373ffffffffffffffffffffffffffffffffffffffff16146105a8576040517f251c9d6300000000000000000000000000000000000000000000000000000000815260040160405180910390fd5b60008054906101000a900460ff16156105ed576040517f3bc47fbe00000000000000000000000000000000000000000000000000000000815260040160405180910390fd5b7f0000000000000000000000000000000000000000000000000000000000000000471015610647576040517f6f2259e200000000000000000000000000000000000000000000000000000000815260040160405180910390fd5b600047905060007f000000000000000000000000000000000000000000000000000000000000000073ffffffffffffffffffffffffffffffffffffffff168260405161069290610d07565b60006040518083038185875af1925050503d80600081146106cf576040519150601f19603f3d011682016040523d82523d6000602084013e6106d4565b606091505b5050905080610718576040517f08c379a000000000000000000000000000000000000000000000000000000000815260040161070f90610d74565b60405180910390fd5b60016000806101000a81548160ff0219169083151502179055507f000000000000000000000000000000000000000000000000000000000000000073ffffffffffffffffffffffffffffffffffffffff167feaff4b37086828766ad3268786972c0cd24259d4c87a80f9d3963a3c3d999b0d836040516107989190610dd4565b60405180910390a25050565b7f000000000000000000000000000000000000000000000000000000000000000081565b600281815481106107d857600080fd5b906000526020600020016000915054906101000a900473ffffffffffffffffffffffffffffffffffffffff1681565b7f000000000000000000000000000000000000000000000000000000000000000081565b60607f0000000000000000000000000000000000000000000000000000000000000000421015610892576040518060400160405280600681526020017f4163746976650000000000000000000000000000000000000000000000000000815250905061092f565b7f000000000000000000000000000000000000000000000000000000000000000047106108f6576040518060400160405280600981526020017f436f6d706c657465640000000000000000000000000000000000000000000000815250905061092f565b6040518060400160405280600681526020017f4661696c6564000000000000000000000000000000000000000000000000000081525090505b90565b60016020528060005260406000206000915090505481565b7f000000000000000000000000000000000000000000000000000000000000000081565b7f00000000000000000000000000000000000000000000000000000000000000004211156109c8576040517f6c12627f00000000000000000000000000000000000000000000000000000000815260040160405180910390fd5b60008054906101000a900460ff1615610a0d576040517f3bc47fbe00000000000000000000000000000000000000000000000000000000815260040160405180910390fd5b60003411610a47576040517faa5f495e00000000000000000000000000000000000000000000000000000000815260040160405180910390fd5b6000600160003373ffffffffffffffffffffffffffffffffffffffff1673ffffffffffffffffffffffffffffffffffffffff168152602001908152602001600020541415610af3576002339080600181540180825580915050600190039060005260206000200160009091909190916101000a81548173ffffffffffffffffffffffffffffffffffffffff021916908373ffffffffffffffffffffffffffffffffffffffff1602179055505b34600160003373ffffffffffffffffffffffffffffffffffffffff1673ffffffffffffffffffffffffffffffffffffffff1681526020019081526020016000206000828254610b429190610e16565b925050819055503373ffffffffffffffffffffffffffffffffffffffff167f62722348256371b5147820d6cad90c40fd2da1ccee18c3ed52c0bca5a61dbbab34604051610b8f9190610dd4565b60405180910390a2565b600081359050610ba881610ff4565b92915050565b600081359050610bbd8161100b565b92915050565b600060208284031215610bd557600080fd5b6000610be384828501610b99565b91505092915050565b600060208284031215610bfe57600080fd5b6000610c0c84828501610bae565b91505092915050565b610c1e81610e7e565b82525050565b610c2d81610e6c565b82525050565b6000610c3e82610def565b610c488185610e05565b9350610c58818560208601610eba565b610c6181610f65565b840191505092915050565b6000610c79601783610e05565b9150610c8482610f76565b602082019050919050565b6000610c9c601983610e05565b9150610ca782610f9f565b602082019050919050565b6000610cbf600d83610e05565b9150610cca82610fc8565b602082019050919050565b6000610ce2600083610dfa565b9150610ced82610ff1565b600082019050919050565b610d0181610eb0565b82525050565b6000610d1282610cd5565b9150819050919050565b6000602082019050610d316000830184610c24565b92915050565b6000602082019050610d4c6000830184610c15565b92915050565b60006020820190508181036000830152610d6c8184610c33565b905092915050565b60006020820190508181036000830152610d8d81610c6c565b9050919050565b60006020820190508181036000830152610dad81610c8f565b9050919050565b60006020820190508181036000830152610dcd81610cb2565b9050919050565b6000602082019050610de96000830184610cf8565b92915050565b600081519050919050565b600081905092915050565b600082825260208201905092915050565b6000610e2182610eb0565b9150610e2c83610eb0565b9250827fffffffffffffffffffffffffffffffffffffffffffffffffffffffffffffffff03821115610e6157610e60610f36565b5b828201905092915050565b6000610e7782610e90565b9050919050565b6000610e8982610e90565b9050919050565b600073ffffffffffffffffffffffffffffffffffffffff82169050919050565b6000819050919050565b60005b83811015610ed8578082015181840152602081019050610ebd565b83811115610ee7576000848401525b50505050565b6000610ef882610eb0565b91507fffffffffffffffffffffffffffffffffffffffffffffffffffffffffffffffff821415610f2b57610f2a610f36565b5b600182019050919050565b7f4e487b7100000000000000000000000000000000000000000000000000000000600052601160045260246000fd5b6000601f19601f8301169050919050565b7f46756e6473207769746864726177616c206661696c6564000000000000000000600082015250565b7f43616d706169676e20726561636865642069747320676f616c00000000000000600082015250565b7f526566756e64206661696c656400000000000000000000000000000000000000600082015250565b50565b610ffd81610e6c565b811461100857600080fd5b50565b61101481610eb0565b811461101f57600080fd5b5056fea2646970667358221220132147cbf67de06d1b408e8561fffc1d6fea1398f2d1ec2c06fc3e7133a3e3d464736f6c63430008040033",
  "immutableReferences": {
    "3": [
      {
        "length": 32,
        "start": 1317
      },
      {
        "length": 32,
        "start": 1616
      },
      {
        "length": 32,
        "start": 1844
      },
      {
        "length": 32,
        "start": 2380
      }
    ],
    "5": [
      {
        "length": 32,
        "start": 650
      },
      {
        "length": 32,
        "start": 1519
      },
      {
        "length": 32,
        "start": 2057
      },
      {
        "length": 32,
        "start": 2196
      }
    ],
    "7": [
      {
        "length": 32,
        "start": 491
      },
      {
        "length": 32,
        "start": 1958
      },
      {
        "length": 32,
        "start": 2095
      },
      {
        "length": 32,
        "start": 2416
      }
    ]
  },
  "source": "// SPDX-License-Identifier: MIT\npragma solidity ^0.8.4;\n\ncontract Campaign {\n    address payable public immutable owner;\n    uint public immutable goal;\n    uint public immutable deadline;\n    bool private hasCampaignEnded;\n\n    mapping(address => uint) public contributorsToFunds;\n    address[] public contributors;\n\n    // Events to log significant actions in the contract\n    event Contributed(address indexed contributor, uint amount);\n    event FundsWithdrawn(address indexed owner, uint amount);\n    event RefundIssued(address indexed contributor, uint amount);\n    \n\n    // Constructor to initialize the campaign\n    constructor(uint _goal, uint _duration) {\n        owner = payable(msg.sender);\n        goal = _goal;\n        deadline = block.timestamp + _duration;\n        hasCampaignEnded = false;\n    }\n\n    // Function to contribute to the campaign\n    function contribute() external payable beforeDeadline campaignNotEnded providingFunds {\n        if (contributorsToFunds[msg.sender] == 0) {\n            contributors.push(msg.sender);\n        }\n\n        contributorsToFunds[msg.sender] += msg.value;\n\n        emit Contributed(msg.sender, msg.value);\n    }\n\n    // Function to withdraw funds if the campaign is successful\n    function withdrawFunds() external isOwner campaignNotEnded reachedGoal {\n        uint balance = address(this).balance;\n        (bool fundsWithdrawn,) = owner.call{value: balance}(\"\");\n        require(fundsWithdrawn, \"Funds withdrawal failed\");\n\n        hasCampaignEnded = true;\n        emit FundsWithdrawn(owner, balance);\n    }\n\n    // Function to get the status of the campaign\n    function getStatus() public view returns (string memory) {\n        if (block.timestamp < deadline) {\n            return \"Active\";\n        } else {\n            if (address(this).balance >= goal) {\n                return \"Completed\";\n            } else {\n                return \"Failed\";\n            }\n        }\n    }\n\n    // Function to return funds to contributors if the campaign fails\n    // This could be called by an oracle in the future for automated refunds\n    function returnFunds() public afterDeadline campaignNotEnded {\n        require(address(this).balance < goal, \"Campaign reached its goal\");\n\n        for (uint i = 0; i < contributors.length; i++) {\n            address contributor = contributors[i];\n            uint amount = contributorsToFunds[contributor];\n\n            if (amount > 0) {\n                contributorsToFunds[contributor] = 0;  // Zero out the balance before sending to prevent reentrancy\n                (bool refundSuccess,) = contributor.call{value: amount}(\"\");\n                require(refundSuccess, \"Refund failed\");\n\n                emit RefundIssued(contributor, amount);\n            }\n        }\n\n        hasCampaignEnded = true;\n    }\n\n    // Error messages for the custom error handling\n    error notOwner();\n    error goalNotReached();\n    error reachedDeadline();\n    error deadlineNotReached();\n    error zeroFunds();\n    error campaignEnded();\n\n    // Modifier to check if the sender is the campaign owner\n    modifier isOwner() {\n        if (msg.sender != owner) {\n            revert notOwner();\n        }\n        _;\n    }\n\n    // Modifier to ensure the campaign has reached its goal\n    modifier reachedGoal() {\n        if (address(this).balance < goal) {\n            revert goalNotReached();\n        }\n        _;\n    }\n\n    // Modifier to ensure the campaign is still before the deadline\n    modifier beforeDeadline() {\n        if (block.timestamp > deadline) {\n            revert reachedDeadline();\n        }\n        _;\n    }\n\n    // Modifier to ensure the campaign is after the deadline\n    modifier afterDeadline() {\n        if (block.timestamp < deadline) {\n            revert deadlineNotReached();\n        }\n        _;\n    }\n\n    // Modifier to ensure a contribution is greater than 0\n    modifier providingFunds() {\n        if (msg.value <= 0) {\n            revert zeroFunds();\n        }\n        _;\n    }\n\n    // Modifier to check if the campaign has ended\n    modifier campaignNotEnded() {\n        if (hasCampaignEnded) {\n            revert campaignEnded();\n        }\n        _;\n    }\n}\n",
  "sourcePath": "/Users/muhammad/Desktop/crowdfunding/contracts/Campaign.sol",
  "compiler": {
    "name": "solc",
    "version": "0.8.4+commit.c7e474f2.Emscripten.clang"
  },
  "schemaVersion": "3.4.16",
  "updatedAt": "2024-08-15T22:04:57.973Z",
  "devdoc": {
    "kind": "dev",
    "methods": {},
    "version": 1
  },
  "userdoc": {
    "kind": "user",
    "methods": {},
    "version": 1
  }
}