{
  "contractName": "Crowdfunding",
  "abi": [
    {
      "anonymous": false,
      "inputs": [
        {
          "indexed": false,
          "internalType": "uint256",
          "name": "id",
          "type": "uint256"
        },
        {
          "indexed": false,
          "internalType": "address",
          "name": "creator",
          "type": "address"
        },
        {
          "indexed": false,
          "internalType": "uint256",
          "name": "goal",
          "type": "uint256"
        },
        {
          "indexed": false,
          "internalType": "uint256",
          "name": "deadline",
          "type": "uint256"
        }
      ],
      "name": "CampaignCreated",
      "type": "event"
    },
    {
      "anonymous": false,
      "inputs": [
        {
          "indexed": false,
          "internalType": "uint256",
          "name": "id",
          "type": "uint256"
        },
        {
          "indexed": false,
          "internalType": "address",
          "name": "contributor",
          "type": "address"
        },
        {
          "indexed": false,
          "internalType": "uint256",
          "name": "amount",
          "type": "uint256"
        }
      ],
      "name": "Contributed",
      "type": "event"
    },
    {
      "anonymous": false,
      "inputs": [
        {
          "indexed": false,
          "internalType": "uint256",
          "name": "id",
          "type": "uint256"
        },
        {
          "indexed": false,
          "internalType": "address",
          "name": "contributor",
          "type": "address"
        },
        {
          "indexed": false,
          "internalType": "uint256",
          "name": "amount",
          "type": "uint256"
        }
      ],
      "name": "Refunded",
      "type": "event"
    },
    {
      "anonymous": false,
      "inputs": [
        {
          "indexed": false,
          "internalType": "uint256",
          "name": "id",
          "type": "uint256"
        },
        {
          "indexed": false,
          "internalType": "address",
          "name": "creator",
          "type": "address"
        },
        {
          "indexed": false,
          "internalType": "uint256",
          "name": "amount",
          "type": "uint256"
        }
      ],
      "name": "Withdrawn",
      "type": "event"
    },
    {
      "inputs": [],
      "name": "campaignCount",
      "outputs": [
        {
          "internalType": "uint256",
          "name": "",
          "type": "uint256"
        }
      ],
      "stateMutability": "view",
      "type": "function",
      "constant": true
    },
    {
      "inputs": [
        {
          "internalType": "uint256",
          "name": "_goal",
          "type": "uint256"
        },
        {
          "internalType": "uint256",
          "name": "_duration",
          "type": "uint256"
        }
      ],
      "name": "createCampaign",
      "outputs": [],
      "stateMutability": "nonpayable",
      "type": "function"
    },
    {
      "inputs": [
        {
          "internalType": "uint256",
          "name": "_id",
          "type": "uint256"
        }
      ],
      "name": "contribute",
      "outputs": [],
      "stateMutability": "payable",
      "type": "function",
      "payable": true
    },
    {
      "inputs": [
        {
          "internalType": "uint256",
          "name": "_id",
          "type": "uint256"
        }
      ],
      "name": "withdrawFunds",
      "outputs": [],
      "stateMutability": "nonpayable",
      "type": "function"
    },
    {
      "inputs": [
        {
          "internalType": "uint256",
          "name": "_id",
          "type": "uint256"
        }
      ],
      "name": "refund",
      "outputs": [],
      "stateMutability": "nonpayable",
      "type": "function"
    },
    {
      "inputs": [
        {
          "internalType": "uint256",
          "name": "_id",
          "type": "uint256"
        }
      ],
      "name": "getCampaign",
      "outputs": [
        {
          "internalType": "address",
          "name": "creator",
          "type": "address"
        },
        {
          "internalType": "uint256",
          "name": "goal",
          "type": "uint256"
        },
        {
          "internalType": "uint256",
          "name": "pledged",
          "type": "uint256"
        },
        {
          "internalType": "uint256",
          "name": "deadline",
          "type": "uint256"
        },
        {
          "internalType": "bool",
          "name": "completed",
          "type": "bool"
        }
      ],
      "stateMutability": "view",
      "type": "function",
      "constant": true
    },
    {
      "inputs": [
        {
          "internalType": "uint256",
          "name": "_id",
          "type": "uint256"
        },
        {
          "internalType": "address",
          "name": "_contributor",
          "type": "address"
        }
      ],
      "name": "getContribution",
      "outputs": [
        {
          "internalType": "uint256",
          "name": "",
          "type": "uint256"
        }
      ],
      "stateMutability": "view",
      "type": "function",
      "constant": true
    },
    {
      "inputs": [
        {
          "internalType": "uint256",
          "name": "_id",
          "type": "uint256"
        }
      ],
      "name": "getStatus",
      "outputs": [
        {
          "internalType": "string",
          "name": "",
          "type": "string"
        }
      ],
      "stateMutability": "view",
      "type": "function",
      "constant": true
    }
  ],
  "bytecode": "0x608060405234801561001057600080fd5b5061120f806100206000396000f3fe60806040526004361061007b5760003560e01c80635c622a0e1161004e5780635c622a0e1461013c5780637274e30d14610179578063c1cbbca7146101a4578063e081dbf9146101c05761007b565b8063155dd5ee1461008057806322502268146100a9578063278ecde1146100d25780635598f8cc146100fb575b600080fd5b34801561008c57600080fd5b506100a760048036038101906100a29190610a9c565b6101fd565b005b3480156100b557600080fd5b506100d060048036038101906100cb9190610b01565b610463565b005b3480156100de57600080fd5b506100f960048036038101906100f49190610a9c565b610558565b005b34801561010757600080fd5b50610122600480360381019061011d9190610a9c565b610755565b604051610133959493929190610cbb565b60405180910390f35b34801561014857600080fd5b50610163600480360381019061015e9190610a9c565b6107cc565b6040516101709190610d0e565b60405180910390f35b34801561018557600080fd5b5061018e6108b9565b60405161019b9190610e30565b60405180910390f35b6101be60048036038101906101b99190610a9c565b6108bf565b005b3480156101cc57600080fd5b506101e760048036038101906101e29190610ac5565b610a10565b6040516101f49190610e30565b60405180910390f35b600080600083815260200190815260200160002090503373ffffffffffffffffffffffffffffffffffffffff168160000160009054906101000a900473ffffffffffffffffffffffffffffffffffffffff1673ffffffffffffffffffffffffffffffffffffffff16146102a5576040517f08c379a000000000000000000000000000000000000000000000000000000000815260040161029c90610dd0565b60405180910390fd5b806003015442116102eb576040517f08c379a00000000000000000000000000000000000000000000000000000000081526004016102e290610d50565b60405180910390fd5b806001015481600201541015610336576040517f08c379a000000000000000000000000000000000000000000000000000000000815260040161032d90610e10565b60405180910390fd5b8060040160009054906101000a900460ff1615610388576040517f08c379a000000000000000000000000000000000000000000000000000000000815260040161037f90610db0565b60405180910390fd5b60008160020154905060018260040160006101000a81548160ff021916908315150217905550600082600201819055508160000160009054906101000a900473ffffffffffffffffffffffffffffffffffffffff1673ffffffffffffffffffffffffffffffffffffffff166108fc829081150290604051600060405180830381858888f19350505050158015610422573d6000803e3d6000fd5b507fcf7d23a3cbe4e8b36ff82fd1b05b1b17373dc7804b4ebbd6e2356716ef20237283338360405161045693929190610e4b565b60405180910390a1505050565b6001600081548092919061047690610fb4565b9190505550600080600060015481526020019081526020016000209050338160000160006101000a81548173ffffffffffffffffffffffffffffffffffffffff021916908373ffffffffffffffffffffffffffffffffffffffff16021790555082816001018190555081426104eb9190610ee3565b816003018190555060008160040160006101000a81548160ff0219169083151502179055507f91b289a829e71d811b8c69e4a24ba2d40d115d8a236e9a724cb3bb2d43cf72236001543385846003015460405161054b9493929190610e82565b60405180910390a1505050565b60008060008381526020019081526020016000209050806003015442116105b4576040517f08c379a00000000000000000000000000000000000000000000000000000000081526004016105ab90610d50565b60405180910390fd5b80600101548160020154106105fe576040517f08c379a00000000000000000000000000000000000000000000000000000000081526004016105f590610d90565b60405180910390fd5b60008160050160003373ffffffffffffffffffffffffffffffffffffffff1673ffffffffffffffffffffffffffffffffffffffff16815260200190815260200160002054905060008111610687576040517f08c379a000000000000000000000000000000000000000000000000000000000815260040161067e90610d70565b60405180910390fd5b60008260050160003373ffffffffffffffffffffffffffffffffffffffff1673ffffffffffffffffffffffffffffffffffffffff168152602001908152602001600020819055503373ffffffffffffffffffffffffffffffffffffffff166108fc829081150290604051600060405180830381858888f19350505050158015610714573d6000803e3d6000fd5b507f7ca5472b7ea78c2c0141c5a12ee6d170cf4ce8ed06be3d22c8252ddfc7a6a2c483338360405161074893929190610e4b565b60405180910390a1505050565b60008060008060008060008088815260200190815260200160002090508060000160009054906101000a900473ffffffffffffffffffffffffffffffffffffffff168160010154826002015483600301548460040160009054906101000a900460ff16955095509550955095505091939590929450565b6060600080600084815260200190815260200160002090508060030154421061087a57806001015481600201541061083c576040518060400160405280600981526020017f436f6d706c6574656400000000000000000000000000000000000000000000008152509150506108b4565b6040518060400160405280600681526020017f4661696c656400000000000000000000000000000000000000000000000000008152509150506108b4565b6040518060400160405280600681526020017f41637469766500000000000000000000000000000000000000000000000000008152509150505b919050565b60015481565b600080600083815260200190815260200160002090508060030154421061091b576040517f08c379a000000000000000000000000000000000000000000000000000000000815260040161091290610d30565b60405180910390fd5b6000341161095e576040517f08c379a000000000000000000000000000000000000000000000000000000000815260040161095590610df0565b60405180910390fd5b348160020160008282546109729190610ee3565b92505081905550348160050160003373ffffffffffffffffffffffffffffffffffffffff1673ffffffffffffffffffffffffffffffffffffffff16815260200190815260200160002060008282546109ca9190610ee3565b925050819055507fb2ed2e021651f85a4754a44651fc09ac5141bc0329ce4dfe8dd712a5d04a8b39823334604051610a0493929190610e4b565b60405180910390a15050565b60008060008085815260200190815260200160002090508060050160008473ffffffffffffffffffffffffffffffffffffffff1673ffffffffffffffffffffffffffffffffffffffff1681526020019081526020016000205491505092915050565b600081359050610a81816111ab565b92915050565b600081359050610a96816111c2565b92915050565b600060208284031215610aae57600080fd5b6000610abc84828501610a87565b91505092915050565b60008060408385031215610ad857600080fd5b6000610ae685828601610a87565b9250506020610af785828601610a72565b9150509250929050565b60008060408385031215610b1457600080fd5b6000610b2285828601610a87565b9250506020610b3385828601610a87565b9150509250929050565b610b4681610f39565b82525050565b610b5581610f4b565b82525050565b6000610b6682610ec7565b610b708185610ed2565b9350610b80818560208601610f81565b610b898161102c565b840191505092915050565b6000610ba1600e83610ed2565b9150610bac8261103d565b602082019050919050565b6000610bc4601683610ed2565b9150610bcf82611066565b602082019050919050565b6000610be7601a83610ed2565b9150610bf28261108f565b602082019050919050565b6000610c0a601883610ed2565b9150610c15826110b8565b602082019050919050565b6000610c2d601a83610ed2565b9150610c38826110e1565b602082019050919050565b6000610c50601d83610ed2565b9150610c5b8261110a565b602082019050919050565b6000610c73602383610ed2565b9150610c7e82611133565b604082019050919050565b6000610c96601083610ed2565b9150610ca182611182565b602082019050919050565b610cb581610f77565b82525050565b600060a082019050610cd06000830188610b3d565b610cdd6020830187610cac565b610cea6040830186610cac565b610cf76060830185610cac565b610d046080830184610b4c565b9695505050505050565b60006020820190508181036000830152610d288184610b5b565b905092915050565b60006020820190508181036000830152610d4981610b94565b9050919050565b60006020820190508181036000830152610d6981610bb7565b9050919050565b60006020820190508181036000830152610d8981610bda565b9050919050565b60006020820190508181036000830152610da981610bfd565b9050919050565b60006020820190508181036000830152610dc981610c20565b9050919050565b60006020820190508181036000830152610de981610c43565b9050919050565b60006020820190508181036000830152610e0981610c66565b9050919050565b60006020820190508181036000830152610e2981610c89565b9050919050565b6000602082019050610e456000830184610cac565b92915050565b6000606082019050610e606000830186610cac565b610e6d6020830185610b3d565b610e7a6040830184610cac565b949350505050565b6000608082019050610e976000830187610cac565b610ea46020830186610b3d565b610eb16040830185610cac565b610ebe6060830184610cac565b95945050505050565b600081519050919050565b600082825260208201905092915050565b6000610eee82610f77565b9150610ef983610f77565b9250827fffffffffffffffffffffffffffffffffffffffffffffffffffffffffffffffff03821115610f2e57610f2d610ffd565b5b828201905092915050565b6000610f4482610f57565b9050919050565b60008115159050919050565b600073ffffffffffffffffffffffffffffffffffffffff82169050919050565b6000819050919050565b60005b83811015610f9f578082015181840152602081019050610f84565b83811115610fae576000848401525b50505050565b6000610fbf82610f77565b91507fffffffffffffffffffffffffffffffffffffffffffffffffffffffffffffffff821415610ff257610ff1610ffd565b5b600182019050919050565b7f4e487b7100000000000000000000000000000000000000000000000000000000600052601160045260246000fd5b6000601f19601f8301169050919050565b7f43616d706169676e20656e646564000000000000000000000000000000000000600082015250565b7f43616d706169676e206e6f7420656e6465642079657400000000000000000000600082015250565b7f4e6f20636f6e747269627574696f6e7320746f20726566756e64000000000000600082015250565b7f476f616c20726561636865642c206e6f20726566756e64730000000000000000600082015250565b7f43616d706169676e20616c726561647920636f6d706c65746564000000000000600082015250565b7f4f6e6c79207468652063726561746f722063616e207769746864726177000000600082015250565b7f436f6e747269627574696f6e206d75737420626520677265617465722074686160008201527f6e20300000000000000000000000000000000000000000000000000000000000602082015250565b7f476f616c206e6f74207265616368656400000000000000000000000000000000600082015250565b6111b481610f39565b81146111bf57600080fd5b50565b6111cb81610f77565b81146111d657600080fd5b5056fea2646970667358221220b1b33f3b443dc9e87ece6c7caa446d0514492930f70fc7e2640972d98825504364736f6c63430008040033",
  "immutableReferences": {},
  "source": "// SPDX-License-Identifier: MIT\npragma solidity ^0.8.0;\n\ncontract Crowdfunding {\n    struct Campaign {\n        address payable creator;\n        uint goal;\n        uint pledged;\n        uint deadline;\n        bool completed;\n        mapping(address => uint) contributions;\n    }\n\n    mapping(uint => Campaign) private campaigns;\n    uint public campaignCount;\n\n    event CampaignCreated(uint id, address creator, uint goal, uint deadline);\n    event Contributed(uint id, address contributor, uint amount);\n    event Withdrawn(uint id, address creator, uint amount);\n    event Refunded(uint id, address contributor, uint amount);\n\n    // Create a new campaign\n    function createCampaign(uint _goal, uint _duration) external {\n        campaignCount++;\n        Campaign storage newCampaign = campaigns[campaignCount];\n        newCampaign.creator = payable(msg.sender);\n        newCampaign.goal = _goal;\n        newCampaign.deadline = block.timestamp + _duration;\n        newCampaign.completed = false;\n\n        emit CampaignCreated(campaignCount, msg.sender, _goal, newCampaign.deadline);\n    }\n\n    // Contribute to a campaign\n    function contribute(uint _id) external payable {\n        Campaign storage campaign = campaigns[_id];\n        require(block.timestamp < campaign.deadline, \"Campaign ended\");\n        require(msg.value > 0, \"Contribution must be greater than 0\");\n\n        campaign.pledged += msg.value;\n        campaign.contributions[msg.sender] += msg.value;\n\n        emit Contributed(_id, msg.sender, msg.value);\n    }\n\n    // Withdraw funds if the campaign is successful\n    function withdrawFunds(uint _id) external {\n        Campaign storage campaign = campaigns[_id];\n        require(campaign.creator == msg.sender, \"Only the creator can withdraw\");\n        require(block.timestamp > campaign.deadline, \"Campaign not ended yet\");\n        require(campaign.pledged >= campaign.goal, \"Goal not reached\");\n        require(!campaign.completed, \"Campaign already completed\");\n\n        uint amount = campaign.pledged;\n        campaign.completed = true;\n        campaign.pledged = 0;\n\n        campaign.creator.transfer(amount);\n\n        emit Withdrawn(_id, msg.sender, amount);\n    }\n\n    // Refund contributions if the campaign failed\n    function refund(uint _id) external {\n        Campaign storage campaign = campaigns[_id];\n        require(block.timestamp > campaign.deadline, \"Campaign not ended yet\");\n        require(campaign.pledged < campaign.goal, \"Goal reached, no refunds\");\n\n        uint contributed = campaign.contributions[msg.sender];\n        require(contributed > 0, \"No contributions to refund\");\n\n        campaign.contributions[msg.sender] = 0;\n        payable(msg.sender).transfer(contributed);\n\n        emit Refunded(_id, msg.sender, contributed);\n    }\n\n    // Get campaign details\n    function getCampaign(uint _id) external view returns (\n        address creator,\n        uint goal,\n        uint pledged,\n        uint deadline,\n        bool completed\n    ) {\n        Campaign storage campaign = campaigns[_id];\n        return (\n            campaign.creator,\n            campaign.goal,\n            campaign.pledged,\n            campaign.deadline,\n            campaign.completed\n        );\n    }\n\n    // Get the contribution of an address to a campaign\n    function getContribution(uint _id, address _contributor) external view returns (uint) {\n        Campaign storage campaign = campaigns[_id];\n        return campaign.contributions[_contributor];\n    }\n\n    // Get the status of a campaign\n    function getStatus(uint _id) public view returns (string memory) {\n        Campaign storage campaign = campaigns[_id];\n\n        if (block.timestamp >= campaign.deadline) {\n            if (campaign.pledged >= campaign.goal) {\n                return \"Completed\";\n            } else {\n                return \"Failed\";\n            }\n        } else {\n            return \"Active\";\n        }\n    }\n}\n",
  "sourcePath": "/Users/muhammad/Desktop/crowdfunding/contracts/Crowdfunding.sol",
  "compiler": {
    "name": "solc",
    "version": "0.8.4+commit.c7e474f2.Emscripten.clang"
  },
  "schemaVersion": "3.4.16",
  "updatedAt": "2024-08-17T09:44:45.810Z",
  "networkType": "ethereum",
  "devdoc": {
    "kind": "dev",
    "methods": {},
    "version": 1
  },
  "userdoc": {
    "kind": "user",
    "methods": {},
    "version": 1
  }
}