{
  "contractName": "Crowdfunding",
  "abi": [
    {
      "anonymous": false,
      "inputs": [
        {
          "indexed": false,
          "internalType": "uint256",
          "name": "id",
          "type": "uint256"
        },
        {
          "indexed": false,
          "internalType": "address",
          "name": "creator",
          "type": "address"
        },
        {
          "indexed": false,
          "internalType": "uint256",
          "name": "goal",
          "type": "uint256"
        },
        {
          "indexed": false,
          "internalType": "uint256",
          "name": "deadline",
          "type": "uint256"
        }
      ],
      "name": "CampaignCreated",
      "type": "event"
    },
    {
      "anonymous": false,
      "inputs": [
        {
          "indexed": false,
          "internalType": "uint256",
          "name": "id",
          "type": "uint256"
        },
        {
          "indexed": false,
          "internalType": "string",
          "name": "status",
          "type": "string"
        }
      ],
      "name": "CampaignStatus",
      "type": "event"
    },
    {
      "anonymous": false,
      "inputs": [
        {
          "indexed": false,
          "internalType": "uint256",
          "name": "id",
          "type": "uint256"
        },
        {
          "indexed": false,
          "internalType": "address",
          "name": "contributor",
          "type": "address"
        },
        {
          "indexed": false,
          "internalType": "uint256",
          "name": "amount",
          "type": "uint256"
        }
      ],
      "name": "Contributed",
      "type": "event"
    },
    {
      "anonymous": false,
      "inputs": [
        {
          "indexed": false,
          "internalType": "uint256",
          "name": "id",
          "type": "uint256"
        },
        {
          "indexed": false,
          "internalType": "address",
          "name": "creator",
          "type": "address"
        },
        {
          "indexed": false,
          "internalType": "uint256",
          "name": "amount",
          "type": "uint256"
        }
      ],
      "name": "Withdrawn",
      "type": "event"
    },
    {
      "inputs": [],
      "name": "campaignCount",
      "outputs": [
        {
          "internalType": "uint256",
          "name": "",
          "type": "uint256"
        }
      ],
      "stateMutability": "view",
      "type": "function",
      "constant": true
    },
    {
      "inputs": [
        {
          "internalType": "uint256",
          "name": "",
          "type": "uint256"
        }
      ],
      "name": "campaigns",
      "outputs": [
        {
          "internalType": "address payable",
          "name": "creator",
          "type": "address"
        },
        {
          "internalType": "uint256",
          "name": "goal",
          "type": "uint256"
        },
        {
          "internalType": "uint256",
          "name": "pledged",
          "type": "uint256"
        },
        {
          "internalType": "uint256",
          "name": "deadline",
          "type": "uint256"
        },
        {
          "internalType": "bool",
          "name": "completed",
          "type": "bool"
        }
      ],
      "stateMutability": "view",
      "type": "function",
      "constant": true
    },
    {
      "inputs": [
        {
          "internalType": "uint256",
          "name": "_goal",
          "type": "uint256"
        },
        {
          "internalType": "uint256",
          "name": "_duration",
          "type": "uint256"
        }
      ],
      "name": "createCampaign",
      "outputs": [],
      "stateMutability": "nonpayable",
      "type": "function"
    },
    {
      "inputs": [
        {
          "internalType": "uint256",
          "name": "_id",
          "type": "uint256"
        }
      ],
      "name": "contribute",
      "outputs": [],
      "stateMutability": "payable",
      "type": "function",
      "payable": true
    },
    {
      "inputs": [
        {
          "internalType": "uint256",
          "name": "campaignId",
          "type": "uint256"
        }
      ],
      "name": "withdrawFunds",
      "outputs": [],
      "stateMutability": "nonpayable",
      "type": "function"
    },
    {
      "inputs": [
        {
          "internalType": "uint256",
          "name": "campaignId",
          "type": "uint256"
        }
      ],
      "name": "getStatus",
      "outputs": [
        {
          "internalType": "string",
          "name": "",
          "type": "string"
        }
      ],
      "stateMutability": "view",
      "type": "function",
      "constant": true
    }
  ],
  "bytecode": "0x608060405234801561001057600080fd5b50610e3f806100206000396000f3fe6080604052600436106100555760003560e01c8063141961bc1461005a578063155dd5ee1461009b57806322502268146100c45780635c622a0e146100ed5780637274e30d1461012a578063c1cbbca714610155575b600080fd5b34801561006657600080fd5b50610081600480360381019061007c91906107be565b610171565b604051610092959493929190610a7e565b60405180910390f35b3480156100a757600080fd5b506100c260048036038101906100bd91906107be565b6101d4565b005b3480156100d057600080fd5b506100eb60048036038101906100e691906107e7565b6103e8565b005b3480156100f957600080fd5b50610114600480360381019061010f91906107be565b6105bc565b6040516101219190610ad1565b60405180910390f35b34801561013657600080fd5b5061013f6106aa565b60405161014c9190610bd3565b60405180910390f35b61016f600480360381019061016a91906107be565b6106b0565b005b60006020528060005260406000206000915090508060000160009054906101000a900473ffffffffffffffffffffffffffffffffffffffff16908060010154908060020154908060030154908060040160009054906101000a900460ff16905085565b600080600083815260200190815260200160002090503373ffffffffffffffffffffffffffffffffffffffff168160000160009054906101000a900473ffffffffffffffffffffffffffffffffffffffff1673ffffffffffffffffffffffffffffffffffffffff161461027c576040517f08c379a000000000000000000000000000000000000000000000000000000000815260040161027390610b53565b60405180910390fd5b806003015442116102c2576040517f08c379a00000000000000000000000000000000000000000000000000000000081526004016102b990610b13565b60405180910390fd5b80600101548160020154101561030d576040517f08c379a000000000000000000000000000000000000000000000000000000000815260040161030490610b93565b60405180910390fd5b6000816002015490506000826002018190555060018260040160006101000a81548160ff0219169083151502179055508160000160009054906101000a900473ffffffffffffffffffffffffffffffffffffffff1673ffffffffffffffffffffffffffffffffffffffff166108fc829081150290604051600060405180830381858888f193505050501580156103a7573d6000803e3d6000fd5b507fcf7d23a3cbe4e8b36ff82fd1b05b1b17373dc7804b4ebbd6e2356716ef2023728333836040516103db93929190610bee565b60405180910390a1505050565b6000821161042b576040517f08c379a000000000000000000000000000000000000000000000000000000000815260040161042290610bb3565b60405180910390fd5b6000811161046e576040517f08c379a000000000000000000000000000000000000000000000000000000000815260040161046590610b33565b60405180910390fd5b6001600081548092919061048190610d69565b91905055506040518060a001604052803373ffffffffffffffffffffffffffffffffffffffff1681526020018381526020016000815260200182426104c69190610c86565b815260200160001515815250600080600154815260200190815260200160002060008201518160000160006101000a81548173ffffffffffffffffffffffffffffffffffffffff021916908373ffffffffffffffffffffffffffffffffffffffff16021790555060208201518160010155604082015181600201556060820151816003015560808201518160040160006101000a81548160ff0219169083151502179055509050507f91b289a829e71d811b8c69e4a24ba2d40d115d8a236e9a724cb3bb2d43cf7223600154338484426105a09190610c86565b6040516105b09493929190610c25565b60405180910390a15050565b606060008060008481526020019081526020016000209050806003015442101561061e576040518060400160405280600681526020017f41637469766500000000000000000000000000000000000000000000000000008152509150506106a5565b806001015481600201541061066b576040518060400160405280600981526020017f436f6d706c6574656400000000000000000000000000000000000000000000008152509150506106a5565b6040518060400160405280600681526020017f4661696c656400000000000000000000000000000000000000000000000000008152509150505b919050565b60015481565b600080600083815260200190815260200160002090508060030154421061070c576040517f08c379a000000000000000000000000000000000000000000000000000000000815260040161070390610af3565b60405180910390fd5b6000341161074f576040517f08c379a000000000000000000000000000000000000000000000000000000000815260040161074690610b73565b60405180910390fd5b348160020160008282546107639190610c86565b925050819055507fb2ed2e021651f85a4754a44651fc09ac5141bc0329ce4dfe8dd712a5d04a8b3982333460405161079d93929190610bee565b60405180910390a15050565b6000813590506107b881610df2565b92915050565b6000602082840312156107d057600080fd5b60006107de848285016107a9565b91505092915050565b600080604083850312156107fa57600080fd5b6000610808858286016107a9565b9250506020610819858286016107a9565b9150509250929050565b61082c81610cee565b82525050565b61083b81610cdc565b82525050565b61084a81610d00565b82525050565b600061085b82610c6a565b6108658185610c75565b9350610875818560208601610d36565b61087e81610de1565b840191505092915050565b6000610896600e83610c75565b91507f43616d706169676e20656e6465640000000000000000000000000000000000006000830152602082019050919050565b60006108d6601683610c75565b91507f43616d706169676e206e6f7420656e64656420796574000000000000000000006000830152602082019050919050565b6000610916601f83610c75565b91507f4475726174696f6e206d7573742062652067726561746572207468616e2030006000830152602082019050919050565b6000610956601d83610c75565b91507f4f6e6c79207468652063726561746f722063616e2077697468647261770000006000830152602082019050919050565b6000610996602383610c75565b91507f436f6e747269627574696f6e206d75737420626520677265617465722074686160008301527f6e203000000000000000000000000000000000000000000000000000000000006020830152604082019050919050565b60006109fc601083610c75565b91507f476f616c206e6f742072656163686564000000000000000000000000000000006000830152602082019050919050565b6000610a3c601b83610c75565b91507f476f616c206d7573742062652067726561746572207468616e203000000000006000830152602082019050919050565b610a7881610d2c565b82525050565b600060a082019050610a936000830188610823565b610aa06020830187610a6f565b610aad6040830186610a6f565b610aba6060830185610a6f565b610ac76080830184610841565b9695505050505050565b60006020820190508181036000830152610aeb8184610850565b905092915050565b60006020820190508181036000830152610b0c81610889565b9050919050565b60006020820190508181036000830152610b2c816108c9565b9050919050565b60006020820190508181036000830152610b4c81610909565b9050919050565b60006020820190508181036000830152610b6c81610949565b9050919050565b60006020820190508181036000830152610b8c81610989565b9050919050565b60006020820190508181036000830152610bac816109ef565b9050919050565b60006020820190508181036000830152610bcc81610a2f565b9050919050565b6000602082019050610be86000830184610a6f565b92915050565b6000606082019050610c036000830186610a6f565b610c106020830185610832565b610c1d6040830184610a6f565b949350505050565b6000608082019050610c3a6000830187610a6f565b610c476020830186610832565b610c546040830185610a6f565b610c616060830184610a6f565b95945050505050565b600081519050919050565b600082825260208201905092915050565b6000610c9182610d2c565b9150610c9c83610d2c565b9250827fffffffffffffffffffffffffffffffffffffffffffffffffffffffffffffffff03821115610cd157610cd0610db2565b5b828201905092915050565b6000610ce782610d0c565b9050919050565b6000610cf982610d0c565b9050919050565b60008115159050919050565b600073ffffffffffffffffffffffffffffffffffffffff82169050919050565b6000819050919050565b60005b83811015610d54578082015181840152602081019050610d39565b83811115610d63576000848401525b50505050565b6000610d7482610d2c565b91507fffffffffffffffffffffffffffffffffffffffffffffffffffffffffffffffff821415610da757610da6610db2565b5b600182019050919050565b7f4e487b7100000000000000000000000000000000000000000000000000000000600052601160045260246000fd5b6000601f19601f8301169050919050565b610dfb81610d2c565b8114610e0657600080fd5b5056fea2646970667358221220abdec56e8a54c5b14d68089be7d8e7dbd63db2a45b26ce18bdd476279303f3c164736f6c63430008000033",
  "immutableReferences": {},
  "source": "// SPDX-License-Identifier: MIT\npragma solidity ^0.8.0;\n\ncontract Crowdfunding {\n    struct Campaign {\n        address payable creator;\n        uint goal;\n        uint pledged;\n        uint deadline;\n        bool completed;\n    }\n\n    mapping(uint => Campaign) public campaigns;\n    uint public campaignCount;\n\n    event CampaignCreated(uint id, address creator, uint goal, uint deadline);\n    event Contributed(uint id, address contributor, uint amount);\n    event Withdrawn(uint id, address creator, uint amount);\n    event CampaignStatus(uint id, string status);\n\n    // Create a new campaign\n    function createCampaign(uint _goal, uint _duration) external {\n        require(_goal > 0, \"Goal must be greater than 0\");\n        require(_duration > 0, \"Duration must be greater than 0\");\n        campaignCount++;\n        campaigns[campaignCount] = Campaign(\n            payable(msg.sender),\n            _goal,\n            0,\n            block.timestamp + _duration,\n            false\n        );\n\n        emit CampaignCreated(campaignCount, msg.sender, _goal, block.timestamp + _duration);\n    }\n\n    // Contribute to a campaign\n    function contribute(uint _id) external payable {\n        Campaign storage campaign = campaigns[_id];\n        require(block.timestamp < campaign.deadline, \"Campaign ended\");\n        require(msg.value > 0, \"Contribution must be greater than 0\");\n\n        campaign.pledged += msg.value;\n\n        emit Contributed(_id, msg.sender, msg.value);\n    }\n\n    // Withdraw funds if the campaign is successful\n    function withdrawFunds(uint256 campaignId) public {\n        Campaign storage campaign = campaigns[campaignId];\n        require(campaign.creator == msg.sender, \"Only the creator can withdraw\");\n        require(block.timestamp > campaign.deadline, \"Campaign not ended yet\");\n        require(campaign.pledged >= campaign.goal, \"Goal not reached\");\n\n        uint256 amount = campaign.pledged;\n        campaign.pledged = 0;\n        campaign.completed = true;\n        payable(campaign.creator).transfer(amount);\n\n        emit Withdrawn(campaignId, msg.sender, amount);\n    }\n\n    // Get the status of a campaign\n    function getStatus(uint256 campaignId) public view returns (string memory) {\n        Campaign storage campaign = campaigns[campaignId];\n        if (block.timestamp < campaign.deadline) {\n            return \"Active\";\n        } else {\n            if (campaign.pledged >= campaign.goal) {\n                return \"Completed\";\n            } else {\n                return \"Failed\";\n            }\n        }\n    }\n}\n",
  "sourcePath": "/Users/muhammad/Desktop/crowdfunding-dapp/contracts/Crowdfunding.sol",
  "compiler": {
    "name": "solc",
    "version": "0.8.0+commit.c7dfd78e.Emscripten.clang"
  },
  "schemaVersion": "3.4.16",
  "updatedAt": "2024-08-13T15:37:30.717Z",
  "networkType": "ethereum",
  "devdoc": {
    "kind": "dev",
    "methods": {},
    "version": 1
  },
  "userdoc": {
    "kind": "user",
    "methods": {},
    "version": 1
  }
}